{
  "_format": "hh-sol-artifact-1",
  "contractName": "GameNFT",
  "sourceName": "contracts/GameNFT.sol",
  "abi": [
    {
      "inputs": [
        {
          "internalType": "address",
          "name": "_gameToken",
          "type": "address"
        }
      ],
      "stateMutability": "nonpayable",
      "type": "constructor"
    },
    {
      "inputs": [],
      "name": "ERC721EnumerableForbiddenBatchMint",
      "type": "error"
    },
    {
      "inputs": [
        {
          "internalType": "address",
          "name": "sender",
          "type": "address"
        },
        {
          "internalType": "uint256",
          "name": "tokenId",
          "type": "uint256"
        },
        {
          "internalType": "address",
          "name": "owner",
          "type": "address"
        }
      ],
      "name": "ERC721IncorrectOwner",
      "type": "error"
    },
    {
      "inputs": [
        {
          "internalType": "address",
          "name": "operator",
          "type": "address"
        },
        {
          "internalType": "uint256",
          "name": "tokenId",
          "type": "uint256"
        }
      ],
      "name": "ERC721InsufficientApproval",
      "type": "error"
    },
    {
      "inputs": [
        {
          "internalType": "address",
          "name": "approver",
          "type": "address"
        }
      ],
      "name": "ERC721InvalidApprover",
      "type": "error"
    },
    {
      "inputs": [
        {
          "internalType": "address",
          "name": "operator",
          "type": "address"
        }
      ],
      "name": "ERC721InvalidOperator",
      "type": "error"
    },
    {
      "inputs": [
        {
          "internalType": "address",
          "name": "owner",
          "type": "address"
        }
      ],
      "name": "ERC721InvalidOwner",
      "type": "error"
    },
    {
      "inputs": [
        {
          "internalType": "address",
          "name": "receiver",
          "type": "address"
        }
      ],
      "name": "ERC721InvalidReceiver",
      "type": "error"
    },
    {
      "inputs": [
        {
          "internalType": "address",
          "name": "sender",
          "type": "address"
        }
      ],
      "name": "ERC721InvalidSender",
      "type": "error"
    },
    {
      "inputs": [
        {
          "internalType": "uint256",
          "name": "tokenId",
          "type": "uint256"
        }
      ],
      "name": "ERC721NonexistentToken",
      "type": "error"
    },
    {
      "inputs": [
        {
          "internalType": "address",
          "name": "owner",
          "type": "address"
        },
        {
          "internalType": "uint256",
          "name": "index",
          "type": "uint256"
        }
      ],
      "name": "ERC721OutOfBoundsIndex",
      "type": "error"
    },
    {
      "inputs": [
        {
          "internalType": "address",
          "name": "owner",
          "type": "address"
        }
      ],
      "name": "OwnableInvalidOwner",
      "type": "error"
    },
    {
      "inputs": [
        {
          "internalType": "address",
          "name": "account",
          "type": "address"
        }
      ],
      "name": "OwnableUnauthorizedAccount",
      "type": "error"
    },
    {
      "anonymous": false,
      "inputs": [
        {
          "indexed": true,
          "internalType": "address",
          "name": "owner",
          "type": "address"
        },
        {
          "indexed": true,
          "internalType": "address",
          "name": "approved",
          "type": "address"
        },
        {
          "indexed": true,
          "internalType": "uint256",
          "name": "tokenId",
          "type": "uint256"
        }
      ],
      "name": "Approval",
      "type": "event"
    },
    {
      "anonymous": false,
      "inputs": [
        {
          "indexed": true,
          "internalType": "address",
          "name": "owner",
          "type": "address"
        },
        {
          "indexed": true,
          "internalType": "address",
          "name": "operator",
          "type": "address"
        },
        {
          "indexed": false,
          "internalType": "bool",
          "name": "approved",
          "type": "bool"
        }
      ],
      "name": "ApprovalForAll",
      "type": "event"
    },
    {
      "anonymous": false,
      "inputs": [
        {
          "indexed": true,
          "internalType": "address",
          "name": "previousOwner",
          "type": "address"
        },
        {
          "indexed": true,
          "internalType": "address",
          "name": "newOwner",
          "type": "address"
        }
      ],
      "name": "OwnershipTransferred",
      "type": "event"
    },
    {
      "anonymous": false,
      "inputs": [
        {
          "indexed": true,
          "internalType": "address",
          "name": "from",
          "type": "address"
        },
        {
          "indexed": true,
          "internalType": "address",
          "name": "to",
          "type": "address"
        },
        {
          "indexed": true,
          "internalType": "uint256",
          "name": "tokenId",
          "type": "uint256"
        }
      ],
      "name": "Transfer",
      "type": "event"
    },
    {
      "inputs": [
        {
          "internalType": "address",
          "name": "to",
          "type": "address"
        },
        {
          "internalType": "uint256",
          "name": "tokenId",
          "type": "uint256"
        }
      ],
      "name": "approve",
      "outputs": [],
      "stateMutability": "nonpayable",
      "type": "function"
    },
    {
      "inputs": [
        {
          "internalType": "address",
          "name": "owner",
          "type": "address"
        }
      ],
      "name": "balanceOf",
      "outputs": [
        {
          "internalType": "uint256",
          "name": "",
          "type": "uint256"
        }
      ],
      "stateMutability": "view",
      "type": "function"
    },
    {
      "inputs": [],
      "name": "gameToken",
      "outputs": [
        {
          "internalType": "contract IERC20",
          "name": "",
          "type": "address"
        }
      ],
      "stateMutability": "view",
      "type": "function"
    },
    {
      "inputs": [
        {
          "internalType": "uint256",
          "name": "tokenId",
          "type": "uint256"
        }
      ],
      "name": "getApproved",
      "outputs": [
        {
          "internalType": "address",
          "name": "",
          "type": "address"
        }
      ],
      "stateMutability": "view",
      "type": "function"
    },
    {
      "inputs": [
        {
          "internalType": "uint256",
          "name": "tokenId",
          "type": "uint256"
        }
      ],
      "name": "getNFTDetails",
      "outputs": [
        {
          "internalType": "uint256",
          "name": "highestScore",
          "type": "uint256"
        },
        {
          "internalType": "address",
          "name": "player",
          "type": "address"
        },
        {
          "internalType": "string",
          "name": "timestamp",
          "type": "string"
        },
        {
          "internalType": "string",
          "name": "rarity",
          "type": "string"
        }
      ],
      "stateMutability": "view",
      "type": "function"
    },
    {
      "inputs": [
        {
          "internalType": "address",
          "name": "owner",
          "type": "address"
        },
        {
          "internalType": "address",
          "name": "operator",
          "type": "address"
        }
      ],
      "name": "isApprovedForAll",
      "outputs": [
        {
          "internalType": "bool",
          "name": "",
          "type": "bool"
        }
      ],
      "stateMutability": "view",
      "type": "function"
    },
    {
      "inputs": [
        {
          "internalType": "uint256",
          "name": "highestScore",
          "type": "uint256"
        },
        {
          "internalType": "string",
          "name": "timestamp",
          "type": "string"
        }
      ],
      "name": "mint",
      "outputs": [
        {
          "internalType": "uint256",
          "name": "",
          "type": "uint256"
        }
      ],
      "stateMutability": "nonpayable",
      "type": "function"
    },
    {
      "inputs": [],
      "name": "mintPrice",
      "outputs": [
        {
          "internalType": "uint256",
          "name": "",
          "type": "uint256"
        }
      ],
      "stateMutability": "view",
      "type": "function"
    },
    {
      "inputs": [],
      "name": "name",
      "outputs": [
        {
          "internalType": "string",
          "name": "",
          "type": "string"
        }
      ],
      "stateMutability": "view",
      "type": "function"
    },
    {
      "inputs": [],
      "name": "owner",
      "outputs": [
        {
          "internalType": "address",
          "name": "",
          "type": "address"
        }
      ],
      "stateMutability": "view",
      "type": "function"
    },
    {
      "inputs": [
        {
          "internalType": "uint256",
          "name": "tokenId",
          "type": "uint256"
        }
      ],
      "name": "ownerOf",
      "outputs": [
        {
          "internalType": "address",
          "name": "",
          "type": "address"
        }
      ],
      "stateMutability": "view",
      "type": "function"
    },
    {
      "inputs": [],
      "name": "renounceOwnership",
      "outputs": [],
      "stateMutability": "nonpayable",
      "type": "function"
    },
    {
      "inputs": [
        {
          "internalType": "address",
          "name": "from",
          "type": "address"
        },
        {
          "internalType": "address",
          "name": "to",
          "type": "address"
        },
        {
          "internalType": "uint256",
          "name": "tokenId",
          "type": "uint256"
        }
      ],
      "name": "safeTransferFrom",
      "outputs": [],
      "stateMutability": "nonpayable",
      "type": "function"
    },
    {
      "inputs": [
        {
          "internalType": "address",
          "name": "from",
          "type": "address"
        },
        {
          "internalType": "address",
          "name": "to",
          "type": "address"
        },
        {
          "internalType": "uint256",
          "name": "tokenId",
          "type": "uint256"
        },
        {
          "internalType": "bytes",
          "name": "data",
          "type": "bytes"
        }
      ],
      "name": "safeTransferFrom",
      "outputs": [],
      "stateMutability": "nonpayable",
      "type": "function"
    },
    {
      "inputs": [
        {
          "internalType": "address",
          "name": "operator",
          "type": "address"
        },
        {
          "internalType": "bool",
          "name": "approved",
          "type": "bool"
        }
      ],
      "name": "setApprovalForAll",
      "outputs": [],
      "stateMutability": "nonpayable",
      "type": "function"
    },
    {
      "inputs": [
        {
          "internalType": "bytes4",
          "name": "interfaceId",
          "type": "bytes4"
        }
      ],
      "name": "supportsInterface",
      "outputs": [
        {
          "internalType": "bool",
          "name": "",
          "type": "bool"
        }
      ],
      "stateMutability": "view",
      "type": "function"
    },
    {
      "inputs": [],
      "name": "symbol",
      "outputs": [
        {
          "internalType": "string",
          "name": "",
          "type": "string"
        }
      ],
      "stateMutability": "view",
      "type": "function"
    },
    {
      "inputs": [
        {
          "internalType": "uint256",
          "name": "",
          "type": "uint256"
        }
      ],
      "name": "tokenAttributes",
      "outputs": [
        {
          "internalType": "uint256",
          "name": "highestScore",
          "type": "uint256"
        },
        {
          "internalType": "address",
          "name": "onwer",
          "type": "address"
        },
        {
          "internalType": "string",
          "name": "timestamp",
          "type": "string"
        }
      ],
      "stateMutability": "view",
      "type": "function"
    },
    {
      "inputs": [
        {
          "internalType": "uint256",
          "name": "index",
          "type": "uint256"
        }
      ],
      "name": "tokenByIndex",
      "outputs": [
        {
          "internalType": "uint256",
          "name": "",
          "type": "uint256"
        }
      ],
      "stateMutability": "view",
      "type": "function"
    },
    {
      "inputs": [
        {
          "internalType": "address",
          "name": "owner",
          "type": "address"
        },
        {
          "internalType": "uint256",
          "name": "index",
          "type": "uint256"
        }
      ],
      "name": "tokenOfOwnerByIndex",
      "outputs": [
        {
          "internalType": "uint256",
          "name": "",
          "type": "uint256"
        }
      ],
      "stateMutability": "view",
      "type": "function"
    },
    {
      "inputs": [
        {
          "internalType": "uint256",
          "name": "",
          "type": "uint256"
        }
      ],
      "name": "tokenRarity",
      "outputs": [
        {
          "internalType": "string",
          "name": "",
          "type": "string"
        }
      ],
      "stateMutability": "view",
      "type": "function"
    },
    {
      "inputs": [
        {
          "internalType": "uint256",
          "name": "tokenId",
          "type": "uint256"
        }
      ],
      "name": "tokenURI",
      "outputs": [
        {
          "internalType": "string",
          "name": "",
          "type": "string"
        }
      ],
      "stateMutability": "view",
      "type": "function"
    },
    {
      "inputs": [],
      "name": "totalSupply",
      "outputs": [
        {
          "internalType": "uint256",
          "name": "",
          "type": "uint256"
        }
      ],
      "stateMutability": "view",
      "type": "function"
    },
    {
      "inputs": [
        {
          "internalType": "address",
          "name": "from",
          "type": "address"
        },
        {
          "internalType": "address",
          "name": "to",
          "type": "address"
        },
        {
          "internalType": "uint256",
          "name": "tokenId",
          "type": "uint256"
        }
      ],
      "name": "transferFrom",
      "outputs": [],
      "stateMutability": "nonpayable",
      "type": "function"
    },
    {
      "inputs": [
        {
          "internalType": "address",
          "name": "newOwner",
          "type": "address"
        }
      ],
      "name": "transferOwnership",
      "outputs": [],
      "stateMutability": "nonpayable",
      "type": "function"
    },
    {
      "inputs": [
        {
          "internalType": "uint256",
          "name": "amount",
          "type": "uint256"
        }
      ],
      "name": "withdrawGameTokens",
      "outputs": [],
      "stateMutability": "nonpayable",
      "type": "function"
    }
  ],
  "bytecode": "0x6080604052678ac7230489e80000600c553480156200001d57600080fd5b5060405162002a2a38038062002a2a833981016040819052620000409162000155565b336040518060400160405280600881526020016711d85b594813919560c21b8152506040518060400160405280600481526020016311d3919560e21b81525081600090816200009091906200022c565b5060016200009f82826200022c565b5050506001600160a01b038116620000d157604051631e4fbdf760e01b81526000600482015260240160405180910390fd5b620000dc8162000103565b50600b80546001600160a01b0319166001600160a01b0392909216919091179055620002f8565b600a80546001600160a01b038381166001600160a01b0319831681179093556040519116919082907f8be0079c531659141344cd1fd0a4f28419497f9722a3daafe3b4186f6b6457e090600090a35050565b6000602082840312156200016857600080fd5b81516001600160a01b03811681146200018057600080fd5b9392505050565b634e487b7160e01b600052604160045260246000fd5b600181811c90821680620001b257607f821691505b602082108103620001d357634e487b7160e01b600052602260045260246000fd5b50919050565b601f8211156200022757600081815260208120601f850160051c81016020861015620002025750805b601f850160051c820191505b8181101562000223578281556001016200020e565b5050505b505050565b81516001600160401b0381111562000248576200024862000187565b62000260816200025984546200019d565b84620001d9565b602080601f8311600181146200029857600084156200027f5750858301515b600019600386901b1c1916600185901b17855562000223565b600085815260208120601f198616915b82811015620002c957888601518255948401946001909101908401620002a8565b5085821015620002e85787850151600019600388901b60f8161c191681555b5050505050600190811b01905550565b61272280620003086000396000f3fe608060405234801561001057600080fd5b506004361061018e5760003560e01c8063715018a6116100de578063afb0a36911610097578063c87b56dd11610071578063c87b56dd14610353578063e985e9c514610366578063f2824b5314610379578063f2fde38b1461039b57600080fd5b8063afb0a3691461031a578063b88d4fde1461032d578063c3dfdae61461034057600080fd5b8063715018a6146102b057806377097fc8146102b857806382260f35146102cb5780638da5cb5b146102ee57806395d89b41146102ff578063a22cb4651461030757600080fd5b806323b872dd1161014b5780634f6ccce7116101255780634f6ccce71461026e5780636352211e146102815780636817c76c1461029457806370a082311461029d57600080fd5b806323b872dd146102355780632f745c591461024857806342842e0e1461025b57600080fd5b806301ffc9a71461019357806306fdde03146101bb578063081812fc146101d0578063095ea7b3146101fb57806318160ddd14610210578063199d0a5b14610222575b600080fd5b6101a66101a1366004611e0a565b6103ae565b60405190151581526020015b60405180910390f35b6101c36103d9565b6040516101b29190611e77565b6101e36101de366004611e8a565b61046b565b6040516001600160a01b0390911681526020016101b2565b61020e610209366004611eba565b610494565b005b6008545b6040519081526020016101b2565b61020e610230366004611e8a565b6104a3565b61020e610243366004611ee4565b610566565b610214610256366004611eba565b6105f1565b61020e610269366004611ee4565b610656565b61021461027c366004611e8a565b610676565b6101e361028f366004611e8a565b6106cf565b610214600c5481565b6102146102ab366004611f20565b6106da565b61020e610722565b6102146102c6366004611fc7565b610736565b6102de6102d9366004611e8a565b6109d9565b6040516101b29493929190612022565b600a546001600160a01b03166101e3565b6101c3610bcb565b61020e610315366004612077565b610bda565b6101c3610328366004611e8a565b610be5565b61020e61033b3660046120ae565b610c7f565b600b546101e3906001600160a01b031681565b6101c3610361366004611e8a565b610c97565b6101a661037436600461212a565b610eda565b61038c610387366004611e8a565b610f08565b6040516101b29392919061215d565b61020e6103a9366004611f20565b610fbd565b60006001600160e01b0319821663780e9d6360e01b14806103d357506103d382610ff8565b92915050565b6060600080546103e890612190565b80601f016020809104026020016040519081016040528092919081815260200182805461041490612190565b80156104615780601f1061043657610100808354040283529160200191610461565b820191906000526020600020905b81548152906001019060200180831161044457829003601f168201915b5050505050905090565b600061047682611048565b506000828152600460205260409020546001600160a01b03166103d3565b61049f828233611081565b5050565b6104ab61108e565b600b5460405163a9059cbb60e01b8152336004820152602481018390526001600160a01b039091169063a9059cbb906044016020604051808303816000875af11580156104fc573d6000803e3d6000fd5b505050506040513d601f19601f8201168201806040525081019061052091906121ca565b6105635760405162461bcd60e51b815260206004820152600f60248201526e151c985b9cd9995c8819985a5b1959608a1b60448201526064015b60405180910390fd5b50565b6001600160a01b03821661059057604051633250574960e11b81526000600482015260240161055a565b600061059d8383336110bb565b9050836001600160a01b0316816001600160a01b0316146105eb576040516364283d7b60e01b81526001600160a01b038086166004830152602482018490528216604482015260640161055a565b50505050565b60006105fc836106da565b821061062d5760405163295f44f760e21b81526001600160a01b03841660048201526024810183905260440161055a565b506001600160a01b03919091166000908152600660209081526040808320938352929052205490565b61067183838360405180602001604052806000815250610c7f565b505050565b600061068160085490565b82106106aa5760405163295f44f760e21b8152600060048201526024810183905260440161055a565b600882815481106106bd576106bd6121e7565b90600052602060002001549050919050565b60006103d382611048565b60006001600160a01b038216610706576040516322718ad960e21b81526000600482015260240161055a565b506001600160a01b031660009081526003602052604090205490565b61072a61108e565b6107346000611190565b565b600b54600c546040516323b872dd60e01b815233600482015230602482015260448101919091526000916001600160a01b0316906323b872dd906064016020604051808303816000875af1158015610792573d6000803e3d6000fd5b505050506040513d601f19601f820116820180604052508101906107b691906121ca565b6107fa5760405162461bcd60e51b8152602060048201526015602482015274151bdad95b881d1c985b9cd9995c8819985a5b1959605a1b604482015260640161055a565b604080514260208201526bffffffffffffffffffffffff193360601b1691810191909152605481018490526000906074016040516020818303038152906040528051906020012060001c905061085033826111e2565b604080516060810182528581523360208083019182528284018781526000868152600d9092529390208251815590516001820180546001600160a01b0319166001600160a01b03909216919091179055915190919060028201906108b49082612243565b50905050610800841061090857604051806040016040528060098152602001684c6567656e6461727960b81b815250600e600083815260200190815260200160002090816109029190612243565b506109d2565b610400841061094d57604051806040016040528060048152602001634570696360e01b815250600e600083815260200190815260200160002090816109029190612243565b610200841061099257604051806040016040528060048152602001635261726560e01b815250600e600083815260200190815260200160002090816109029190612243565b6040518060400160405280600681526020016521b7b6b6b7b760d11b815250600e600083815260200190815260200160002090816109d09190612243565b505b9392505050565b600080606080610a00856000908152600260205260409020546001600160a01b0316151590565b610a435760405162461bcd60e51b8152602060048201526014602482015273151bdad95b88191bd95cc81b9bdd08195e1a5cdd60621b604482015260640161055a565b6000858152600d6020908152604080832081516060810183528154815260018201546001600160a01b0316938101939093526002810180549192840191610a8990612190565b80601f0160208091040260200160405190810160405280929190818152602001828054610ab590612190565b8015610b025780601f10610ad757610100808354040283529160200191610b02565b820191906000526020600020905b815481529060010190602001808311610ae557829003601f168201915b5050505050815250509050806000015181602001518260400151600e60008a8152602001908152602001600020808054610b3b90612190565b80601f0160208091040260200160405190810160405280929190818152602001828054610b6790612190565b8015610bb45780601f10610b8957610100808354040283529160200191610bb4565b820191906000526020600020905b815481529060010190602001808311610b9757829003601f168201915b505050505090509450945094509450509193509193565b6060600180546103e890612190565b61049f3383836111fc565b600e6020526000908152604090208054610bfe90612190565b80601f0160208091040260200160405190810160405280929190818152602001828054610c2a90612190565b8015610c775780601f10610c4c57610100808354040283529160200191610c77565b820191906000526020600020905b815481529060010190602001808311610c5a57829003601f168201915b505050505081565b610c8a848484610566565b6105eb338585858561129b565b6000818152600260205260409020546060906001600160a01b0316610cf55760405162461bcd60e51b8152602060048201526014602482015273151bdad95b88191bd95cc81b9bdd08195e1a5cdd60621b604482015260640161055a565b6000828152600d6020908152604080832081516060810183528154815260018201546001600160a01b0316938101939093526002810180549192840191610d3b90612190565b80601f0160208091040260200160405190810160405280929190818152602001828054610d6790612190565b8015610db45780601f10610d8957610100808354040283529160200191610db4565b820191906000526020600020905b815481529060010190602001808311610d9757829003601f168201915b505050919092525050506000848152600e6020526040812080549293509091610ddc90612190565b80601f0160208091040260200160405190810160405280929190818152602001828054610e0890612190565b8015610e555780601f10610e2a57610100808354040283529160200191610e55565b820191906000526020600020905b815481529060010190602001808311610e3857829003601f168201915b505050505090506000610e67856113c6565b8351610e72906114c7565b8451610e7d906113c6565b848660400151604051602001610e9795949392919061231f565b6040516020818303038152906040529050610eb181611599565b604051602001610ec19190612506565b6040516020818303038152906040529350505050919050565b6001600160a01b03918216600090815260056020908152604080832093909416825291909152205460ff1690565b600d6020526000908152604090208054600182015460028301805492936001600160a01b0390921692610f3a90612190565b80601f0160208091040260200160405190810160405280929190818152602001828054610f6690612190565b8015610fb35780601f10610f8857610100808354040283529160200191610fb3565b820191906000526020600020905b815481529060010190602001808311610f9657829003601f168201915b5050505050905083565b610fc561108e565b6001600160a01b038116610fef57604051631e4fbdf760e01b81526000600482015260240161055a565b61056381611190565b60006001600160e01b031982166380ac58cd60e01b148061102957506001600160e01b03198216635b5e139f60e01b145b806103d357506301ffc9a760e01b6001600160e01b03198316146103d3565b6000818152600260205260408120546001600160a01b0316806103d357604051637e27328960e01b81526004810184905260240161055a565b6106718383836001611931565b600a546001600160a01b031633146107345760405163118cdaa760e01b815233600482015260240161055a565b6000806110c9858585611a37565b90506001600160a01b0381166111265761112184600880546000838152600960205260408120829055600182018355919091527ff3f7a9fe364faab93b216da50a3214154f22a0a2b415b23a84c8169e8b636ee30155565b611149565b846001600160a01b0316816001600160a01b031614611149576111498185611b30565b6001600160a01b0385166111655761116084611bb1565b611188565b846001600160a01b0316816001600160a01b031614611188576111888585611c60565b949350505050565b600a80546001600160a01b038381166001600160a01b0319831681179093556040519116919082907f8be0079c531659141344cd1fd0a4f28419497f9722a3daafe3b4186f6b6457e090600090a35050565b61049f828260405180602001604052806000815250611cb0565b6001600160a01b03821661122e57604051630b61174360e31b81526001600160a01b038316600482015260240161055a565b6001600160a01b03838116600081815260056020908152604080832094871680845294825291829020805460ff191686151590811790915591519182527f17307eab39ab6107e8899845ad3d59bd9653f200f220920489ca2b5937696c31910160405180910390a3505050565b6001600160a01b0383163b156113bf57604051630a85bd0160e11b81526001600160a01b0384169063150b7a02906112dd90889088908790879060040161254b565b6020604051808303816000875af1925050508015611318575060408051601f3d908101601f1916820190925261131591810190612588565b60015b611381573d808015611346576040519150601f19603f3d011682016040523d82523d6000602084013e61134b565b606091505b50805160000361137957604051633250574960e11b81526001600160a01b038516600482015260240161055a565b805181602001fd5b6001600160e01b03198116630a85bd0160e11b146113bd57604051633250574960e11b81526001600160a01b038516600482015260240161055a565b505b5050505050565b6060816000036113ed5750506040805180820190915260018152600360fc1b602082015290565b8160005b81156114175780611401816125bb565b91506114109050600a836125ea565b91506113f1565b60008167ffffffffffffffff81111561143257611432611f3b565b6040519080825280601f01601f19166020018201604052801561145c576020820181803683370190505b5090505b8415611188576114716001836125fe565b915061147e600a86612611565b611489906030612625565b60f81b81838151811061149e5761149e6121e7565b60200101906001600160f81b031916908160001a9053506114c0600a866125ea565b9450611460565b606061080082106114f1576040518060600160405280602581526020016126c86025913992915050565b61040082106115335750506040805180820190915260208082527f68747470733a2f2f6578616d706c652e636f6d2f6e66742f657069632e706e679082015290565b61020082106115755750506040805180820190915260208082527f68747470733a2f2f6578616d706c652e636f6d2f6e66742f726172652e706e679082015290565b6040518060600160405280602281526020016126666022913992915050565b919050565b6060600060405180606001604052806040815260200161268860409139835190915060008190036115db57505060408051602081019091526000815292915050565b600060036115ea836002612625565b6115f491906125ea565b6115ff906004612638565b9050600061160e826020612625565b67ffffffffffffffff81111561162657611626611f3b565b6040519080825280601f01601f191660200182016040528015611650576020820181803683370190505b509050836000805b858210156118ad57600086831061167057600061168b565b898381518110611682576116826121e7565b016020015160f81c5b60ff16905060008761169e856001612625565b106116aa5760006116cf565b8a6116b6856001612625565b815181106116c6576116c66121e7565b016020015160f81c5b60ff1690506000886116e2866002612625565b106116ee576000611713565b8b6116fa866002612625565b8151811061170a5761170a6121e7565b016020015160f81c5b60ff169050600081600884901b601086901b1717905086601282901c603f1681518110611742576117426121e7565b01602001516001600160f81b031916888661175c816125bb565b97508151811061176e5761176e6121e7565b60200101906001600160f81b031916908160001a90535086600c82901c603f168151811061179e5761179e6121e7565b01602001516001600160f81b03191688866117b8816125bb565b9750815181106117ca576117ca6121e7565b60200101906001600160f81b031916908160001a90535086600682901c603f16815181106117fa576117fa6121e7565b01602001516001600160f81b0319168886611814816125bb565b975081518110611826576118266121e7565b60200101906001600160f81b031916908160001a9053508681603f1681518110611852576118526121e7565b01602001516001600160f81b031916888661186c816125bb565b97508151811061187e5761187e6121e7565b60200101906001600160f81b031916908160001a905350505050506003826118a69190612625565b9150611658565b600091505b6118bd600387612611565b6118c89060026125fe565b82101561192457603d60f81b8460016118e185896125fe565b6118eb91906125fe565b815181106118fb576118fb6121e7565b60200101906001600160f81b031916908160001a9053508161191c816125bb565b9250506118b2565b5091979650505050505050565b808061194557506001600160a01b03821615155b15611a0757600061195584611048565b90506001600160a01b038316158015906119815750826001600160a01b0316816001600160a01b031614155b801561199457506119928184610eda565b155b156119bd5760405163a9fbf51f60e01b81526001600160a01b038416600482015260240161055a565b8115611a055783856001600160a01b0316826001600160a01b03167f8c5be1e5ebec7d5bd14f71427d1e84f3dd0314c0f7b2291e5b200ac8c7c3b92560405160405180910390a45b505b5050600090815260046020526040902080546001600160a01b0319166001600160a01b0392909216919091179055565b6000828152600260205260408120546001600160a01b0390811690831615611a6457611a64818486611cc8565b6001600160a01b03811615611aa257611a81600085600080611931565b6001600160a01b038116600090815260036020526040902080546000190190555b6001600160a01b03851615611ad1576001600160a01b0385166000908152600360205260409020805460010190555b60008481526002602052604080822080546001600160a01b0319166001600160a01b0389811691821790925591518793918516917fddf252ad1be2c89b69c2b068fc378daa952ba7f163c4a11628f55a4df523b3ef91a4949350505050565b6000611b3b836106da565b6000838152600760209081526040808320546001600160a01b0388168452600690925290912091925090818314611b9257600083815260208281526040808320548584528184208190558352600790915290208290555b6000938452600760209081526040808620869055938552525081205550565b600854600090611bc3906001906125fe565b60008381526009602052604081205460088054939450909284908110611beb57611beb6121e7565b906000526020600020015490508060088381548110611c0c57611c0c6121e7565b6000918252602080832090910192909255828152600990915260408082208490558582528120556008805480611c4457611c4461264f565b6001900381819060005260206000200160009055905550505050565b60006001611c6d846106da565b611c7791906125fe565b6001600160a01b039093166000908152600660209081526040808320868452825280832085905593825260079052919091209190915550565b611cba8383611d2c565b61067133600085858561129b565b611cd3838383611d91565b610671576001600160a01b038316611d0157604051637e27328960e01b81526004810182905260240161055a565b60405163177e802f60e01b81526001600160a01b03831660048201526024810182905260440161055a565b6001600160a01b038216611d5657604051633250574960e11b81526000600482015260240161055a565b6000611d64838360006110bb565b90506001600160a01b03811615610671576040516339e3563760e11b81526000600482015260240161055a565b60006001600160a01b038316158015906111885750826001600160a01b0316846001600160a01b03161480611dcb5750611dcb8484610eda565b806111885750506000908152600460205260409020546001600160a01b03908116911614919050565b6001600160e01b03198116811461056357600080fd5b600060208284031215611e1c57600080fd5b81356109d281611df4565b60005b83811015611e42578181015183820152602001611e2a565b50506000910152565b60008151808452611e63816020860160208601611e27565b601f01601f19169290920160200192915050565b6020815260006109d26020830184611e4b565b600060208284031215611e9c57600080fd5b5035919050565b80356001600160a01b038116811461159457600080fd5b60008060408385031215611ecd57600080fd5b611ed683611ea3565b946020939093013593505050565b600080600060608486031215611ef957600080fd5b611f0284611ea3565b9250611f1060208501611ea3565b9150604084013590509250925092565b600060208284031215611f3257600080fd5b6109d282611ea3565b634e487b7160e01b600052604160045260246000fd5b600067ffffffffffffffff80841115611f6c57611f6c611f3b565b604051601f8501601f19908116603f01168101908282118183101715611f9457611f94611f3b565b81604052809350858152868686011115611fad57600080fd5b858560208301376000602087830101525050509392505050565b60008060408385031215611fda57600080fd5b82359150602083013567ffffffffffffffff811115611ff857600080fd5b8301601f8101851361200957600080fd5b61201885823560208401611f51565b9150509250929050565b8481526001600160a01b038416602082015260806040820181905260009061204c90830185611e4b565b828103606084015261205e8185611e4b565b979650505050505050565b801515811461056357600080fd5b6000806040838503121561208a57600080fd5b61209383611ea3565b915060208301356120a381612069565b809150509250929050565b600080600080608085870312156120c457600080fd5b6120cd85611ea3565b93506120db60208601611ea3565b925060408501359150606085013567ffffffffffffffff8111156120fe57600080fd5b8501601f8101871361210f57600080fd5b61211e87823560208401611f51565b91505092959194509250565b6000806040838503121561213d57600080fd5b61214683611ea3565b915061215460208401611ea3565b90509250929050565b8381526001600160a01b038316602082015260606040820181905260009061218790830184611e4b565b95945050505050565b600181811c908216806121a457607f821691505b6020821081036121c457634e487b7160e01b600052602260045260246000fd5b50919050565b6000602082840312156121dc57600080fd5b81516109d281612069565b634e487b7160e01b600052603260045260246000fd5b601f82111561067157600081815260208120601f850160051c810160208610156122245750805b601f850160051c820191505b818110156113bd57828155600101612230565b815167ffffffffffffffff81111561225d5761225d611f3b565b6122718161226b8454612190565b846121fd565b602080601f8311600181146122a6576000841561228e5750858301515b600019600386901b1c1916600185901b1785556113bd565b600085815260208120601f198616915b828110156122d5578886015182559484019460019091019084016122b6565b50858210156122f35787850151600019600388901b60f8161c191681555b5050505050600190811b01905550565b60008151612315818560208601611e27565b9290920192915050565b737b226e616d65223a202247616d65204e4654202360601b8152855160009061234f816014850160208b01611e27565b6201116160ed1b60149184019182018190527f226465736372697074696f6e223a2022412047616d65204e465420726570726560178301527f73656e74696e6720612067616d6520616368696576656d656e74222c200000006037830152691134b6b0b3b2911d101160b11b605483015287516123d381605e850160208c01611e27565b605e9201918201526e2261747472696275746573223a205b60881b60618201526124fa6124ec6124de6124d86124a061245561249a6124658261244f60708b017f7b2274726169745f74797065223a2022486967686573742053636f7265222c20815269113b30b63ab2911d101160b11b6020820152602a0190565b8f612303565b630113e96160e51b815260040190565b7f7b2274726169745f74797065223a2022526172697479222c202276616c7565228152621d101160e91b602082015260230190565b8b612303565b7f7b2274726169745f74797065223a202254696d657374616d70222c202276616c8152653ab2911d101160d11b602082015260260190565b87612303565b61227d60f01b815260020190565b615d7d60f01b815260020190565b98975050505050505050565b7f646174613a6170706c69636174696f6e2f6a736f6e3b6261736536342c00000081526000825161253e81601d850160208701611e27565b91909101601d0192915050565b6001600160a01b038581168252841660208201526040810183905260806060820181905260009061257e90830184611e4b565b9695505050505050565b60006020828403121561259a57600080fd5b81516109d281611df4565b634e487b7160e01b600052601160045260246000fd5b6000600182016125cd576125cd6125a5565b5060010190565b634e487b7160e01b600052601260045260246000fd5b6000826125f9576125f96125d4565b500490565b818103818111156103d3576103d36125a5565b600082612620576126206125d4565b500690565b808201808211156103d3576103d36125a5565b80820281158282048414176103d3576103d36125a5565b634e487b7160e01b600052603160045260246000fdfe68747470733a2f2f6578616d706c652e636f6d2f6e66742f636f6d6d6f6e2e706e674142434445464748494a4b4c4d4e4f505152535455565758595a6162636465666768696a6b6c6d6e6f707172737475767778797a303132333435363738392b2f68747470733a2f2f6578616d706c652e636f6d2f6e66742f6c6567656e646172792e706e67a26469706673582212205231b7f599155bf07e19f8fb7f7d92db91376c3163c4cecc0d7d06b78379b6d664736f6c63430008140033",
  "linkReferences": {},
  "deployedLinkReferences": {}
}