{
  "_format": "hh-sol-artifact-1",
  "contractName": "GameNFT",
  "sourceName": "contracts/GameNFT.sol",
  "abi": [
    {
      "inputs": [
        {
          "internalType": "address",
          "name": "_gameToken",
          "type": "address"
        }
      ],
      "stateMutability": "nonpayable",
      "type": "constructor"
    },
    {
      "inputs": [
        {
          "internalType": "address",
          "name": "sender",
          "type": "address"
        },
        {
          "internalType": "uint256",
          "name": "tokenId",
          "type": "uint256"
        },
        {
          "internalType": "address",
          "name": "owner",
          "type": "address"
        }
      ],
      "name": "ERC721IncorrectOwner",
      "type": "error"
    },
    {
      "inputs": [
        {
          "internalType": "address",
          "name": "operator",
          "type": "address"
        },
        {
          "internalType": "uint256",
          "name": "tokenId",
          "type": "uint256"
        }
      ],
      "name": "ERC721InsufficientApproval",
      "type": "error"
    },
    {
      "inputs": [
        {
          "internalType": "address",
          "name": "approver",
          "type": "address"
        }
      ],
      "name": "ERC721InvalidApprover",
      "type": "error"
    },
    {
      "inputs": [
        {
          "internalType": "address",
          "name": "operator",
          "type": "address"
        }
      ],
      "name": "ERC721InvalidOperator",
      "type": "error"
    },
    {
      "inputs": [
        {
          "internalType": "address",
          "name": "owner",
          "type": "address"
        }
      ],
      "name": "ERC721InvalidOwner",
      "type": "error"
    },
    {
      "inputs": [
        {
          "internalType": "address",
          "name": "receiver",
          "type": "address"
        }
      ],
      "name": "ERC721InvalidReceiver",
      "type": "error"
    },
    {
      "inputs": [
        {
          "internalType": "address",
          "name": "sender",
          "type": "address"
        }
      ],
      "name": "ERC721InvalidSender",
      "type": "error"
    },
    {
      "inputs": [
        {
          "internalType": "uint256",
          "name": "tokenId",
          "type": "uint256"
        }
      ],
      "name": "ERC721NonexistentToken",
      "type": "error"
    },
    {
      "inputs": [
        {
          "internalType": "address",
          "name": "owner",
          "type": "address"
        }
      ],
      "name": "OwnableInvalidOwner",
      "type": "error"
    },
    {
      "inputs": [
        {
          "internalType": "address",
          "name": "account",
          "type": "address"
        }
      ],
      "name": "OwnableUnauthorizedAccount",
      "type": "error"
    },
    {
      "anonymous": false,
      "inputs": [
        {
          "indexed": true,
          "internalType": "address",
          "name": "owner",
          "type": "address"
        },
        {
          "indexed": true,
          "internalType": "address",
          "name": "approved",
          "type": "address"
        },
        {
          "indexed": true,
          "internalType": "uint256",
          "name": "tokenId",
          "type": "uint256"
        }
      ],
      "name": "Approval",
      "type": "event"
    },
    {
      "anonymous": false,
      "inputs": [
        {
          "indexed": true,
          "internalType": "address",
          "name": "owner",
          "type": "address"
        },
        {
          "indexed": true,
          "internalType": "address",
          "name": "operator",
          "type": "address"
        },
        {
          "indexed": false,
          "internalType": "bool",
          "name": "approved",
          "type": "bool"
        }
      ],
      "name": "ApprovalForAll",
      "type": "event"
    },
    {
      "anonymous": false,
      "inputs": [
        {
          "indexed": true,
          "internalType": "address",
          "name": "previousOwner",
          "type": "address"
        },
        {
          "indexed": true,
          "internalType": "address",
          "name": "newOwner",
          "type": "address"
        }
      ],
      "name": "OwnershipTransferred",
      "type": "event"
    },
    {
      "anonymous": false,
      "inputs": [
        {
          "indexed": true,
          "internalType": "address",
          "name": "from",
          "type": "address"
        },
        {
          "indexed": true,
          "internalType": "address",
          "name": "to",
          "type": "address"
        },
        {
          "indexed": true,
          "internalType": "uint256",
          "name": "tokenId",
          "type": "uint256"
        }
      ],
      "name": "Transfer",
      "type": "event"
    },
    {
      "inputs": [
        {
          "internalType": "address",
          "name": "to",
          "type": "address"
        },
        {
          "internalType": "uint256",
          "name": "tokenId",
          "type": "uint256"
        }
      ],
      "name": "approve",
      "outputs": [],
      "stateMutability": "nonpayable",
      "type": "function"
    },
    {
      "inputs": [
        {
          "internalType": "address",
          "name": "owner",
          "type": "address"
        }
      ],
      "name": "balanceOf",
      "outputs": [
        {
          "internalType": "uint256",
          "name": "",
          "type": "uint256"
        }
      ],
      "stateMutability": "view",
      "type": "function"
    },
    {
      "inputs": [],
      "name": "gameToken",
      "outputs": [
        {
          "internalType": "contract IERC20",
          "name": "",
          "type": "address"
        }
      ],
      "stateMutability": "view",
      "type": "function"
    },
    {
      "inputs": [
        {
          "internalType": "uint256",
          "name": "tokenId",
          "type": "uint256"
        }
      ],
      "name": "getApproved",
      "outputs": [
        {
          "internalType": "address",
          "name": "",
          "type": "address"
        }
      ],
      "stateMutability": "view",
      "type": "function"
    },
    {
      "inputs": [
        {
          "internalType": "uint256",
          "name": "tokenId",
          "type": "uint256"
        }
      ],
      "name": "getNFTDetails",
      "outputs": [
        {
          "internalType": "uint256",
          "name": "highestScore",
          "type": "uint256"
        },
        {
          "internalType": "address",
          "name": "player",
          "type": "address"
        },
        {
          "internalType": "string",
          "name": "timestamp",
          "type": "string"
        },
        {
          "internalType": "string",
          "name": "rarity",
          "type": "string"
        }
      ],
      "stateMutability": "view",
      "type": "function"
    },
    {
      "inputs": [
        {
          "internalType": "address",
          "name": "owner",
          "type": "address"
        },
        {
          "internalType": "address",
          "name": "operator",
          "type": "address"
        }
      ],
      "name": "isApprovedForAll",
      "outputs": [
        {
          "internalType": "bool",
          "name": "",
          "type": "bool"
        }
      ],
      "stateMutability": "view",
      "type": "function"
    },
    {
      "inputs": [
        {
          "internalType": "uint256",
          "name": "highestScore",
          "type": "uint256"
        },
        {
          "internalType": "string",
          "name": "timestamp",
          "type": "string"
        }
      ],
      "name": "mint",
      "outputs": [
        {
          "internalType": "uint256",
          "name": "",
          "type": "uint256"
        }
      ],
      "stateMutability": "nonpayable",
      "type": "function"
    },
    {
      "inputs": [],
      "name": "mintPrice",
      "outputs": [
        {
          "internalType": "uint256",
          "name": "",
          "type": "uint256"
        }
      ],
      "stateMutability": "view",
      "type": "function"
    },
    {
      "inputs": [],
      "name": "name",
      "outputs": [
        {
          "internalType": "string",
          "name": "",
          "type": "string"
        }
      ],
      "stateMutability": "view",
      "type": "function"
    },
    {
      "inputs": [],
      "name": "owner",
      "outputs": [
        {
          "internalType": "address",
          "name": "",
          "type": "address"
        }
      ],
      "stateMutability": "view",
      "type": "function"
    },
    {
      "inputs": [
        {
          "internalType": "uint256",
          "name": "tokenId",
          "type": "uint256"
        }
      ],
      "name": "ownerOf",
      "outputs": [
        {
          "internalType": "address",
          "name": "",
          "type": "address"
        }
      ],
      "stateMutability": "view",
      "type": "function"
    },
    {
      "inputs": [],
      "name": "renounceOwnership",
      "outputs": [],
      "stateMutability": "nonpayable",
      "type": "function"
    },
    {
      "inputs": [
        {
          "internalType": "address",
          "name": "from",
          "type": "address"
        },
        {
          "internalType": "address",
          "name": "to",
          "type": "address"
        },
        {
          "internalType": "uint256",
          "name": "tokenId",
          "type": "uint256"
        }
      ],
      "name": "safeTransferFrom",
      "outputs": [],
      "stateMutability": "nonpayable",
      "type": "function"
    },
    {
      "inputs": [
        {
          "internalType": "address",
          "name": "from",
          "type": "address"
        },
        {
          "internalType": "address",
          "name": "to",
          "type": "address"
        },
        {
          "internalType": "uint256",
          "name": "tokenId",
          "type": "uint256"
        },
        {
          "internalType": "bytes",
          "name": "data",
          "type": "bytes"
        }
      ],
      "name": "safeTransferFrom",
      "outputs": [],
      "stateMutability": "nonpayable",
      "type": "function"
    },
    {
      "inputs": [
        {
          "internalType": "address",
          "name": "operator",
          "type": "address"
        },
        {
          "internalType": "bool",
          "name": "approved",
          "type": "bool"
        }
      ],
      "name": "setApprovalForAll",
      "outputs": [],
      "stateMutability": "nonpayable",
      "type": "function"
    },
    {
      "inputs": [
        {
          "internalType": "bytes4",
          "name": "interfaceId",
          "type": "bytes4"
        }
      ],
      "name": "supportsInterface",
      "outputs": [
        {
          "internalType": "bool",
          "name": "",
          "type": "bool"
        }
      ],
      "stateMutability": "view",
      "type": "function"
    },
    {
      "inputs": [],
      "name": "symbol",
      "outputs": [
        {
          "internalType": "string",
          "name": "",
          "type": "string"
        }
      ],
      "stateMutability": "view",
      "type": "function"
    },
    {
      "inputs": [
        {
          "internalType": "uint256",
          "name": "",
          "type": "uint256"
        }
      ],
      "name": "tokenAttributes",
      "outputs": [
        {
          "internalType": "uint256",
          "name": "highestScore",
          "type": "uint256"
        },
        {
          "internalType": "address",
          "name": "onwer",
          "type": "address"
        },
        {
          "internalType": "string",
          "name": "timestamp",
          "type": "string"
        }
      ],
      "stateMutability": "view",
      "type": "function"
    },
    {
      "inputs": [
        {
          "internalType": "uint256",
          "name": "",
          "type": "uint256"
        }
      ],
      "name": "tokenRarity",
      "outputs": [
        {
          "internalType": "string",
          "name": "",
          "type": "string"
        }
      ],
      "stateMutability": "view",
      "type": "function"
    },
    {
      "inputs": [
        {
          "internalType": "uint256",
          "name": "tokenId",
          "type": "uint256"
        }
      ],
      "name": "tokenURI",
      "outputs": [
        {
          "internalType": "string",
          "name": "",
          "type": "string"
        }
      ],
      "stateMutability": "view",
      "type": "function"
    },
    {
      "inputs": [
        {
          "internalType": "address",
          "name": "from",
          "type": "address"
        },
        {
          "internalType": "address",
          "name": "to",
          "type": "address"
        },
        {
          "internalType": "uint256",
          "name": "tokenId",
          "type": "uint256"
        }
      ],
      "name": "transferFrom",
      "outputs": [],
      "stateMutability": "nonpayable",
      "type": "function"
    },
    {
      "inputs": [
        {
          "internalType": "address",
          "name": "newOwner",
          "type": "address"
        }
      ],
      "name": "transferOwnership",
      "outputs": [],
      "stateMutability": "nonpayable",
      "type": "function"
    },
    {
      "inputs": [
        {
          "internalType": "uint256",
          "name": "amount",
          "type": "uint256"
        }
      ],
      "name": "withdrawGameTokens",
      "outputs": [],
      "stateMutability": "nonpayable",
      "type": "function"
    }
  ],
  "bytecode": "0x6080604052678ac7230489e800006008553480156200001d57600080fd5b5060405162001d4f38038062001d4f833981016040819052620000409162000155565b336040518060400160405280600881526020016711d85b594813919560c21b8152506040518060400160405280600481526020016311d3919560e21b81525081600090816200009091906200022c565b5060016200009f82826200022c565b5050506001600160a01b038116620000d157604051631e4fbdf760e01b81526000600482015260240160405180910390fd5b620000dc8162000103565b50600780546001600160a01b0319166001600160a01b0392909216919091179055620002f8565b600680546001600160a01b038381166001600160a01b0319831681179093556040519116919082907f8be0079c531659141344cd1fd0a4f28419497f9722a3daafe3b4186f6b6457e090600090a35050565b6000602082840312156200016857600080fd5b81516001600160a01b03811681146200018057600080fd5b9392505050565b634e487b7160e01b600052604160045260246000fd5b600181811c90821680620001b257607f821691505b602082108103620001d357634e487b7160e01b600052602260045260246000fd5b50919050565b601f8211156200022757600081815260208120601f850160051c81016020861015620002025750805b601f850160051c820191505b8181101562000223578281556001016200020e565b5050505b505050565b81516001600160401b0381111562000248576200024862000187565b62000260816200025984546200019d565b84620001d9565b602080601f8311600181146200029857600084156200027f5750858301515b600019600386901b1c1916600185901b17855562000223565b600085815260208120601f198616915b82811015620002c957888601518255948401946001909101908401620002a8565b5085821015620002e85787850151600019600388901b60f8161c191681555b5050505050600190811b01905550565b611a4780620003086000396000f3fe608060405234801561001057600080fd5b506004361061014d5760003560e01c806377097fc8116100c3578063b88d4fde1161007c578063b88d4fde146102c2578063c3dfdae6146102d5578063c87b56dd146102e8578063e985e9c5146102fb578063f2824b531461030e578063f2fde38b1461033057600080fd5b806377097fc81461024d57806382260f35146102605780638da5cb5b1461028357806395d89b4114610294578063a22cb4651461029c578063afb0a369146102af57600080fd5b806323b872dd1161011557806323b872dd146101e257806342842e0e146101f55780636352211e146102085780636817c76c1461021b57806370a0823114610232578063715018a61461024557600080fd5b806301ffc9a71461015257806306fdde031461017a578063081812fc1461018f578063095ea7b3146101ba578063199d0a5b146101cf575b600080fd5b6101656101603660046114a0565b610343565b60405190151581526020015b60405180910390f35b610182610395565b604051610171919061150d565b6101a261019d366004611520565b610427565b6040516001600160a01b039091168152602001610171565b6101cd6101c8366004611555565b610450565b005b6101cd6101dd366004611520565b61045f565b6101cd6101f036600461157f565b610522565b6101cd61020336600461157f565b6105ad565b6101a2610216366004611520565b6105cd565b61022460085481565b604051908152602001610171565b6102246102403660046115bb565b6105d8565b6101cd610620565b61022461025b366004611662565b610634565b61027361026e366004611520565b6108d7565b60405161017194939291906116bd565b6006546001600160a01b03166101a2565b610182610ad2565b6101cd6102aa366004611712565b610ae1565b6101826102bd366004611520565b610aec565b6101cd6102d0366004611749565b610b86565b6007546101a2906001600160a01b031681565b6101826102f6366004611520565b610b9e565b6101656103093660046117c5565b610c12565b61032161031c366004611520565b610c40565b604051610171939291906117f8565b6101cd61033e3660046115bb565b610cf5565b60006001600160e01b031982166380ac58cd60e01b148061037457506001600160e01b03198216635b5e139f60e01b145b8061038f57506301ffc9a760e01b6001600160e01b03198316145b92915050565b6060600080546103a49061182b565b80601f01602080910402602001604051908101604052809291908181526020018280546103d09061182b565b801561041d5780601f106103f25761010080835404028352916020019161041d565b820191906000526020600020905b81548152906001019060200180831161040057829003601f168201915b5050505050905090565b600061043282610d30565b506000828152600460205260409020546001600160a01b031661038f565b61045b828233610d69565b5050565b610467610d76565b60075460405163a9059cbb60e01b8152336004820152602481018390526001600160a01b039091169063a9059cbb906044016020604051808303816000875af11580156104b8573d6000803e3d6000fd5b505050506040513d601f19601f820116820180604052508101906104dc9190611865565b61051f5760405162461bcd60e51b815260206004820152600f60248201526e151c985b9cd9995c8819985a5b1959608a1b60448201526064015b60405180910390fd5b50565b6001600160a01b03821661054c57604051633250574960e11b815260006004820152602401610516565b6000610559838333610da3565b9050836001600160a01b0316816001600160a01b0316146105a7576040516364283d7b60e01b81526001600160a01b0380861660048301526024820184905282166044820152606401610516565b50505050565b6105c883838360405180602001604052806000815250610b86565b505050565b600061038f82610d30565b60006001600160a01b038216610604576040516322718ad960e21b815260006004820152602401610516565b506001600160a01b031660009081526003602052604090205490565b610628610d76565b6106326000610e9c565b565b6007546008546040516323b872dd60e01b815233600482015230602482015260448101919091526000916001600160a01b0316906323b872dd906064016020604051808303816000875af1158015610690573d6000803e3d6000fd5b505050506040513d601f19601f820116820180604052508101906106b49190611865565b6106f85760405162461bcd60e51b8152602060048201526015602482015274151bdad95b881d1c985b9cd9995c8819985a5b1959605a1b6044820152606401610516565b604080514260208201526bffffffffffffffffffffffff193360601b1691810191909152605481018490526000906074016040516020818303038152906040528051906020012060001c905061074e3382610eee565b60408051606081018252858152336020808301918252828401878152600086815260099092529390208251815590516001820180546001600160a01b0319166001600160a01b03909216919091179055915190919060028201906107b290826118c8565b50905050610800841061080657604051806040016040528060098152602001684c6567656e6461727960b81b815250600a6000838152602001908152602001600020908161080091906118c8565b506108d0565b610400841061084b57604051806040016040528060048152602001634570696360e01b815250600a6000838152602001908152602001600020908161080091906118c8565b610200841061089057604051806040016040528060048152602001635261726560e01b815250600a6000838152602001908152602001600020908161080091906118c8565b6040518060400160405280600681526020016521b7b6b6b7b760d11b815250600a600083815260200190815260200160002090816108ce91906118c8565b505b9392505050565b600080606080826108fd866000908152600260205260409020546001600160a01b031690565b6001600160a01b03160361094a5760405162461bcd60e51b8152602060048201526014602482015273151bdad95b88191bd95cc81b9bdd08195e1a5cdd60621b6044820152606401610516565b600085815260096020908152604080832081516060810183528154815260018201546001600160a01b03169381019390935260028101805491928401916109909061182b565b80601f01602080910402602001604051908101604052809291908181526020018280546109bc9061182b565b8015610a095780601f106109de57610100808354040283529160200191610a09565b820191906000526020600020905b8154815290600101906020018083116109ec57829003601f168201915b5050505050815250509050806000015181602001518260400151600a60008a8152602001908152602001600020808054610a429061182b565b80601f0160208091040260200160405190810160405280929190818152602001828054610a6e9061182b565b8015610abb5780601f10610a9057610100808354040283529160200191610abb565b820191906000526020600020905b815481529060010190602001808311610a9e57829003601f168201915b505050505090509450945094509450509193509193565b6060600180546103a49061182b565b61045b338383610f08565b600a6020526000908152604090208054610b059061182b565b80601f0160208091040260200160405190810160405280929190818152602001828054610b319061182b565b8015610b7e5780601f10610b5357610100808354040283529160200191610b7e565b820191906000526020600020905b815481529060010190602001808311610b6157829003601f168201915b505050505081565b610b91848484610522565b6105a73385858585610fa7565b6060610ba982610d30565b506000610bc160408051602081019091526000815290565b90506000815111610be157604051806020016040528060008152506108d0565b80610beb846110d2565b604051602001610bfc929190611988565b6040516020818303038152906040529392505050565b6001600160a01b03918216600090815260056020908152604080832093909416825291909152205460ff1690565b60096020526000908152604090208054600182015460028301805492936001600160a01b0390921692610c729061182b565b80601f0160208091040260200160405190810160405280929190818152602001828054610c9e9061182b565b8015610ceb5780601f10610cc057610100808354040283529160200191610ceb565b820191906000526020600020905b815481529060010190602001808311610cce57829003601f168201915b5050505050905083565b610cfd610d76565b6001600160a01b038116610d2757604051631e4fbdf760e01b815260006004820152602401610516565b61051f81610e9c565b6000818152600260205260408120546001600160a01b03168061038f57604051637e27328960e01b815260048101849052602401610516565b6105c88383836001611165565b6006546001600160a01b031633146106325760405163118cdaa760e01b8152336004820152602401610516565b6000828152600260205260408120546001600160a01b0390811690831615610dd057610dd081848661126b565b6001600160a01b03811615610e0e57610ded600085600080611165565b6001600160a01b038116600090815260036020526040902080546000190190555b6001600160a01b03851615610e3d576001600160a01b0385166000908152600360205260409020805460010190555b60008481526002602052604080822080546001600160a01b0319166001600160a01b0389811691821790925591518793918516917fddf252ad1be2c89b69c2b068fc378daa952ba7f163c4a11628f55a4df523b3ef91a4949350505050565b600680546001600160a01b038381166001600160a01b0319831681179093556040519116919082907f8be0079c531659141344cd1fd0a4f28419497f9722a3daafe3b4186f6b6457e090600090a35050565b61045b8282604051806020016040528060008152506112cf565b6001600160a01b038216610f3a57604051630b61174360e31b81526001600160a01b0383166004820152602401610516565b6001600160a01b03838116600081815260056020908152604080832094871680845294825291829020805460ff191686151590811790915591519182527f17307eab39ab6107e8899845ad3d59bd9653f200f220920489ca2b5937696c31910160405180910390a3505050565b6001600160a01b0383163b156110cb57604051630a85bd0160e11b81526001600160a01b0384169063150b7a0290610fe99088908890879087906004016119b7565b6020604051808303816000875af1925050508015611024575060408051601f3d908101601f19168201909252611021918101906119f4565b60015b61108d573d808015611052576040519150601f19603f3d011682016040523d82523d6000602084013e611057565b606091505b50805160000361108557604051633250574960e11b81526001600160a01b0385166004820152602401610516565b805181602001fd5b6001600160e01b03198116630a85bd0160e11b146110c957604051633250574960e11b81526001600160a01b0385166004820152602401610516565b505b5050505050565b606060006110df836112e7565b600101905060008167ffffffffffffffff8111156110ff576110ff6115d6565b6040519080825280601f01601f191660200182016040528015611129576020820181803683370190505b5090508181016020015b600019016f181899199a1a9b1b9c1cb0b131b232b360811b600a86061a8153600a850494508461113357509392505050565b808061117957506001600160a01b03821615155b1561123b57600061118984610d30565b90506001600160a01b038316158015906111b55750826001600160a01b0316816001600160a01b031614155b80156111c857506111c68184610c12565b155b156111f15760405163a9fbf51f60e01b81526001600160a01b0384166004820152602401610516565b81156112395783856001600160a01b0316826001600160a01b03167f8c5be1e5ebec7d5bd14f71427d1e84f3dd0314c0f7b2291e5b200ac8c7c3b92560405160405180910390a45b505b5050600090815260046020526040902080546001600160a01b0319166001600160a01b0392909216919091179055565b6112768383836113bf565b6105c8576001600160a01b0383166112a457604051637e27328960e01b815260048101829052602401610516565b60405163177e802f60e01b81526001600160a01b038316600482015260248101829052604401610516565b6112d98383611425565b6105c8336000858585610fa7565b60008072184f03e93ff9f4daa797ed6e38ed64bf6a1f0160401b83106113265772184f03e93ff9f4daa797ed6e38ed64bf6a1f0160401b830492506040015b6d04ee2d6d415b85acef81000000008310611352576d04ee2d6d415b85acef8100000000830492506020015b662386f26fc10000831061137057662386f26fc10000830492506010015b6305f5e1008310611388576305f5e100830492506008015b612710831061139c57612710830492506004015b606483106113ae576064830492506002015b600a831061038f5760010192915050565b60006001600160a01b0383161580159061141d5750826001600160a01b0316846001600160a01b031614806113f957506113f98484610c12565b8061141d57506000828152600460205260409020546001600160a01b038481169116145b949350505050565b6001600160a01b03821661144f57604051633250574960e11b815260006004820152602401610516565b600061145d83836000610da3565b90506001600160a01b038116156105c8576040516339e3563760e11b815260006004820152602401610516565b6001600160e01b03198116811461051f57600080fd5b6000602082840312156114b257600080fd5b81356108d08161148a565b60005b838110156114d85781810151838201526020016114c0565b50506000910152565b600081518084526114f98160208601602086016114bd565b601f01601f19169290920160200192915050565b6020815260006108d060208301846114e1565b60006020828403121561153257600080fd5b5035919050565b80356001600160a01b038116811461155057600080fd5b919050565b6000806040838503121561156857600080fd5b61157183611539565b946020939093013593505050565b60008060006060848603121561159457600080fd5b61159d84611539565b92506115ab60208501611539565b9150604084013590509250925092565b6000602082840312156115cd57600080fd5b6108d082611539565b634e487b7160e01b600052604160045260246000fd5b600067ffffffffffffffff80841115611607576116076115d6565b604051601f8501601f19908116603f0116810190828211818310171561162f5761162f6115d6565b8160405280935085815286868601111561164857600080fd5b858560208301376000602087830101525050509392505050565b6000806040838503121561167557600080fd5b82359150602083013567ffffffffffffffff81111561169357600080fd5b8301601f810185136116a457600080fd5b6116b3858235602084016115ec565b9150509250929050565b8481526001600160a01b03841660208201526080604082018190526000906116e7908301856114e1565b82810360608401526116f981856114e1565b979650505050505050565b801515811461051f57600080fd5b6000806040838503121561172557600080fd5b61172e83611539565b9150602083013561173e81611704565b809150509250929050565b6000806000806080858703121561175f57600080fd5b61176885611539565b935061177660208601611539565b925060408501359150606085013567ffffffffffffffff81111561179957600080fd5b8501601f810187136117aa57600080fd5b6117b9878235602084016115ec565b91505092959194509250565b600080604083850312156117d857600080fd5b6117e183611539565b91506117ef60208401611539565b90509250929050565b8381526001600160a01b0383166020820152606060408201819052600090611822908301846114e1565b95945050505050565b600181811c9082168061183f57607f821691505b60208210810361185f57634e487b7160e01b600052602260045260246000fd5b50919050565b60006020828403121561187757600080fd5b81516108d081611704565b601f8211156105c857600081815260208120601f850160051c810160208610156118a95750805b601f850160051c820191505b818110156110c9578281556001016118b5565b815167ffffffffffffffff8111156118e2576118e26115d6565b6118f6816118f0845461182b565b84611882565b602080601f83116001811461192b57600084156119135750858301515b600019600386901b1c1916600185901b1785556110c9565b600085815260208120601f198616915b8281101561195a5788860151825594840194600190910190840161193b565b50858210156119785787850151600019600388901b60f8161c191681555b5050505050600190811b01905550565b6000835161199a8184602088016114bd565b8351908301906119ae8183602088016114bd565b01949350505050565b6001600160a01b03858116825284166020820152604081018390526080606082018190526000906119ea908301846114e1565b9695505050505050565b600060208284031215611a0657600080fd5b81516108d08161148a56fea264697066735822122061aed92940219d9c4f92909b1a2a2259999cbc7a269188155e7bd1cb333e8ebe64736f6c63430008140033",
  "linkReferences": {},
  "deployedLinkReferences": {}
}