{
  "_format": "hh-sol-artifact-1",
  "contractName": "Marketplace",
  "sourceName": "contracts/Marketplace.sol",
  "abi": [
    {
      "inputs": [
        {
          "internalType": "address",
          "name": "_gameToken",
          "type": "address"
        },
        {
          "internalType": "address",
          "name": "_nft",
          "type": "address"
        }
      ],
      "stateMutability": "nonpayable",
      "type": "constructor"
    },
    {
      "inputs": [],
      "name": "ReentrancyGuardReentrantCall",
      "type": "error"
    },
    {
      "anonymous": false,
      "inputs": [
        {
          "indexed": true,
          "internalType": "uint256",
          "name": "tokenId",
          "type": "uint256"
        },
        {
          "indexed": false,
          "internalType": "address",
          "name": "seller",
          "type": "address"
        },
        {
          "indexed": false,
          "internalType": "uint256",
          "name": "price",
          "type": "uint256"
        }
      ],
      "name": "NFTListed",
      "type": "event"
    },
    {
      "anonymous": false,
      "inputs": [
        {
          "indexed": true,
          "internalType": "uint256",
          "name": "tokenId",
          "type": "uint256"
        },
        {
          "indexed": false,
          "internalType": "address",
          "name": "seller",
          "type": "address"
        },
        {
          "indexed": false,
          "internalType": "address",
          "name": "buyer",
          "type": "address"
        },
        {
          "indexed": false,
          "internalType": "uint256",
          "name": "price",
          "type": "uint256"
        }
      ],
      "name": "NFTSold",
      "type": "event"
    },
    {
      "anonymous": false,
      "inputs": [
        {
          "indexed": true,
          "internalType": "uint256",
          "name": "tokenId",
          "type": "uint256"
        }
      ],
      "name": "NFTUnlisted",
      "type": "event"
    },
    {
      "inputs": [
        {
          "internalType": "uint256",
          "name": "",
          "type": "uint256"
        }
      ],
      "name": "activeListings",
      "outputs": [
        {
          "internalType": "uint256",
          "name": "",
          "type": "uint256"
        }
      ],
      "stateMutability": "view",
      "type": "function"
    },
    {
      "inputs": [
        {
          "internalType": "uint256",
          "name": "tokenId",
          "type": "uint256"
        }
      ],
      "name": "buyNFT",
      "outputs": [],
      "stateMutability": "nonpayable",
      "type": "function"
    },
    {
      "inputs": [],
      "name": "gameToken",
      "outputs": [
        {
          "internalType": "contract IERC20",
          "name": "",
          "type": "address"
        }
      ],
      "stateMutability": "view",
      "type": "function"
    },
    {
      "inputs": [],
      "name": "getAllListedNFTs",
      "outputs": [
        {
          "internalType": "uint256[]",
          "name": "tokenIds",
          "type": "uint256[]"
        },
        {
          "internalType": "address[]",
          "name": "sellers",
          "type": "address[]"
        },
        {
          "internalType": "uint256[]",
          "name": "prices",
          "type": "uint256[]"
        }
      ],
      "stateMutability": "view",
      "type": "function"
    },
    {
      "inputs": [
        {
          "internalType": "uint256",
          "name": "tokenId",
          "type": "uint256"
        }
      ],
      "name": "getNFTPrice",
      "outputs": [
        {
          "internalType": "uint256",
          "name": "",
          "type": "uint256"
        }
      ],
      "stateMutability": "view",
      "type": "function"
    },
    {
      "inputs": [
        {
          "internalType": "uint256",
          "name": "tokenId",
          "type": "uint256"
        }
      ],
      "name": "isNFTListed",
      "outputs": [
        {
          "internalType": "bool",
          "name": "",
          "type": "bool"
        }
      ],
      "stateMutability": "view",
      "type": "function"
    },
    {
      "inputs": [
        {
          "internalType": "uint256",
          "name": "tokenId",
          "type": "uint256"
        },
        {
          "internalType": "uint256",
          "name": "price",
          "type": "uint256"
        }
      ],
      "name": "listNFT",
      "outputs": [],
      "stateMutability": "nonpayable",
      "type": "function"
    },
    {
      "inputs": [
        {
          "internalType": "uint256",
          "name": "",
          "type": "uint256"
        }
      ],
      "name": "listings",
      "outputs": [
        {
          "internalType": "address",
          "name": "seller",
          "type": "address"
        },
        {
          "internalType": "uint256",
          "name": "price",
          "type": "uint256"
        },
        {
          "internalType": "bool",
          "name": "active",
          "type": "bool"
        }
      ],
      "stateMutability": "view",
      "type": "function"
    },
    {
      "inputs": [],
      "name": "nft",
      "outputs": [
        {
          "internalType": "contract IERC721",
          "name": "",
          "type": "address"
        }
      ],
      "stateMutability": "view",
      "type": "function"
    },
    {
      "inputs": [
        {
          "internalType": "uint256",
          "name": "tokenId",
          "type": "uint256"
        }
      ],
      "name": "unlistNFT",
      "outputs": [],
      "stateMutability": "nonpayable",
      "type": "function"
    }
  ],
  "bytecode": "0x608060405234801561001057600080fd5b50604051610d4e380380610d4e83398101604081905261002f91610081565b6001600081905580546001600160a01b039384166001600160a01b031991821617909155600280549290931691161790556100b4565b80516001600160a01b038116811461007c57600080fd5b919050565b6000806040838503121561009457600080fd5b61009d83610065565b91506100ab60208401610065565b90509250929050565b610c8b806100c36000396000f3fe608060405234801561001057600080fd5b506004361061009e5760003560e01c806394383f141161006657806394383f1414610133578063961f094414610146578063adb78eac14610159578063c3dfdae61461018f578063de74e57b146101a257600080fd5b806347ccca02146100a35780634b58ffaa146100d357806351ed8288146100ea57806361cf4863146100ff5780639297617914610120575b600080fd5b6002546100b6906001600160a01b031681565b6040516001600160a01b0390911681526020015b60405180910390f35b6100db610205565b6040516100ca93929190610acb565b6100fd6100f8366004610b3e565b6103be565b005b61011261010d366004610b3e565b6105fb565b6040519081526020016100ca565b61011261012e366004610b3e565b61061c565b6100fd610141366004610b57565b610680565b6100fd610154366004610b3e565b6108b5565b61017f610167366004610b3e565b60009081526003602052604090206002015460ff1690565b60405190151581526020016100ca565b6001546100b6906001600160a01b031681565b6101de6101b0366004610b3e565b6003602052600090815260409020805460018201546002909201546001600160a01b03909116919060ff1683565b604080516001600160a01b03909416845260208401929092521515908201526060016100ca565b600454606090819081908067ffffffffffffffff81111561022857610228610b79565b604051908082528060200260200182016040528015610251578160200160208202803683370190505b5093508067ffffffffffffffff81111561026d5761026d610b79565b604051908082528060200260200182016040528015610296578160200160208202803683370190505b5092508067ffffffffffffffff8111156102b2576102b2610b79565b6040519080825280602002602001820160405280156102db578160200160208202803683370190505b50915060005b818110156103b7576000600482815481106102fe576102fe610b8f565b906000526020600020015490508086838151811061031e5761031e610b8f565b60209081029190910181019190915260008281526003909152604090205485516001600160a01b039091169086908490811061035c5761035c610b8f565b6001600160a01b03909216602092830291909101820152600082815260039091526040902060010154845185908490811061039957610399610b8f565b602090810291909101015250806103af81610bbb565b9150506102e1565b5050909192565b6103c66109aa565b600081815260036020908152604091829020825160608101845281546001600160a01b031681526001820154928101929092526002015460ff161515918101829052906104495760405162461bcd60e51b815260206004820152600c60248201526b4e6f7420666f722073616c6560a01b60448201526064015b60405180910390fd5b600154815160208301516040516323b872dd60e01b81523360048201526001600160a01b03928316602482015260448101919091529116906323b872dd906064016020604051808303816000875af11580156104a9573d6000803e3d6000fd5b505050506040513d601f19601f820116820180604052508101906104cd9190610bd4565b61050a5760405162461bcd60e51b815260206004820152600e60248201526d14185e5b595b9d0819985a5b195960921b6044820152606401610440565b60025481516040516323b872dd60e01b81526001600160a01b039182166004820152336024820152604481018590529116906323b872dd90606401600060405180830381600087803b15801561055f57600080fd5b505af1158015610573573d6000803e3d6000fd5b5050506000838152600360205260409020600201805460ff1916905550610599826109d4565b8051602080830151604080516001600160a01b03909416845233928401929092529082015282907f8562eb94748e30bb0071e932744ce902b460c683474fcb3bfd567ffa16b1afb29060600160405180910390a2506105f86001600055565b50565b6004818154811061060b57600080fd5b600091825260209091200154905081565b60008181526003602052604081206002015460ff1661066a5760405162461bcd60e51b815260206004820152600a602482015269139bdd081b1a5cdd195960b21b6044820152606401610440565b5060009081526003602052604090206001015490565b6002546040516331a9108f60e11b81526004810184905233916001600160a01b031690636352211e90602401602060405180830381865afa1580156106c9573d6000803e3d6000fd5b505050506040513d601f19601f820116820180604052508101906106ed9190610bfd565b6001600160a01b0316146107335760405162461bcd60e51b815260206004820152600d60248201526c2737ba103a34329037bbb732b960991b6044820152606401610440565b60025460405163020604bf60e21b81526004810184905230916001600160a01b03169063081812fc90602401602060405180830381865afa15801561077c573d6000803e3d6000fd5b505050506040513d601f19601f820116820180604052508101906107a09190610bfd565b6001600160a01b0316146107e55760405162461bcd60e51b815260206004820152600c60248201526b139bdd08185c1c1c9bdd995960a21b6044820152606401610440565b604080516060810182523380825260208083018581526001848601818152600089815260038552878120965187546001600160a01b0319166001600160a01b03909116178755925186830155516002909501805460ff19169515159590951790945560048054948501815590527f8a35acfbc15ff81a39ae7d344fd709f28e8600b4aa8c65c6b64bfe7fe36bd19b909201859055825190815290810183905283917f5f9c03de076f5063cd3ebcfe8ef7aa8af378e4b35a83c77ba9777e97083879a2910160405180910390a25050565b6000818152600360205260409020546001600160a01b0316331461090c5760405162461bcd60e51b815260206004820152600e60248201526d2737ba103a34329039b2b63632b960911b6044820152606401610440565b60008181526003602052604090206002015460ff1661095a5760405162461bcd60e51b815260206004820152600a6024820152694e6f742061637469766560b01b6044820152606401610440565b6000818152600360205260409020600201805460ff1916905561097c816109d4565b60405181907fcd14eb7ebf273ed59a9fd1cf8651f3f40d9a04355b3511376f0d17b37ba224ff90600090a250565b6002600054036109cd57604051633ee5aeb560e01b815260040160405180910390fd5b6002600055565b60005b600454811015610a8c5781600482815481106109f5576109f5610b8f565b906000526020600020015403610a7a5760048054610a1590600190610c26565b81548110610a2557610a25610b8f565b906000526020600020015460048281548110610a4357610a43610b8f565b6000918252602090912001556004805480610a6057610a60610c3f565b600190038181906000526020600020016000905590555050565b80610a8481610bbb565b9150506109d7565b5050565b600081518084526020808501945080840160005b83811015610ac057815187529582019590820190600101610aa4565b509495945050505050565b606081526000610ade6060830186610a90565b82810360208481019190915285518083528682019282019060005b81811015610b1e5784516001600160a01b031683529383019391830191600101610af9565b50508481036040860152610b328187610a90565b98975050505050505050565b600060208284031215610b5057600080fd5b5035919050565b60008060408385031215610b6a57600080fd5b50508035926020909101359150565b634e487b7160e01b600052604160045260246000fd5b634e487b7160e01b600052603260045260246000fd5b634e487b7160e01b600052601160045260246000fd5b600060018201610bcd57610bcd610ba5565b5060010190565b600060208284031215610be657600080fd5b81518015158114610bf657600080fd5b9392505050565b600060208284031215610c0f57600080fd5b81516001600160a01b0381168114610bf657600080fd5b81810381811115610c3957610c39610ba5565b92915050565b634e487b7160e01b600052603160045260246000fdfea2646970667358221220086be8db0f7f0f4da8611a6b48766b418b7ab4e0a9a28c23c23e9292fbd13c4264736f6c63430008140033",
  "linkReferences": {},
  "deployedLinkReferences": {}
}